:100000000C943A000C9457000C9457000C94570031
:100010000C9457000C9457000C9457000C94570004
:100020000C9457000C9457000C9457000C945700F4
:100030000C9457000C9457000C9457000C945700E4
:100040000C9457000C9457000C9457000C945700D4
:100050000C9457000C9457000C9457000C945700C4
:100060000C9457000C9457000C9457000C945700B4
:100070000C94570011241FBECFEFD4E0DEBFCDBFDC
:1000800013E0A0E0B1E0E4EDFEE002C005900D92C7
:10009000A836B107D9F723E0A8E6B3E001C01D9266
:1000A000AF37B207E1F70E947B060C9468070C9407
:1000B00000000C94C3000C94E4000C94C9000C9450
:1000C000CF000C94D5000E94D5000E94CF00882359
:1000D000E1F38CE291E00197F1F70E94C3008111F6
:1000E0000C945B0008950C94EB00CF93DF9300D049
:1000F0001F92CDB7DEB78091190390911A03A0919A
:100100001B0389839A83AB83509A589A0E94BC013F
:100110008FE690E00E94530181E090E00E94AB01E5
:1001200061E070E081E090E00E9497010E9483010D
:10013000CE0101960E94AB000F900F900F90DF91BF
:10014000CF9108959C01215031093093CD00815009
:100150008093CC000895CF93DF93EC01888199813F
:100160000E94A2008A819BEF980F943008F088E0EB
:1001700098E19093C9008550880F8093CA0081E070
:10018000DF91CF9108958091C800881F8827881F2C
:1001900008958091C80085FB882780F90895809193
:1001A000C80086FB882780F90895CF93C82F0E9446
:1001B000C9008823E1F38091C80080648093C8005F
:1001C000C093CE00CF9108958091C80087FFFCCFE7
:1001D0008091CE000895CF93DF93EC01899188231D
:1001E00019F00E94D500FACFDF91CF910895E1E692
:1001F000F0E080E880831082A89584B7877F84BF71
:10020000E0E6F0E080818861808310820895CF93DA
:10021000DF93DC01FB0160E070E080E0C1E0D0E052
:100220008417C9F09191BE01092E02C0660F771F95
:100230000A94E2F76F5F7F4F769567956A0F7B1F91
:1002400002C0769567959A95E2F76F3F710519F0B0
:1002500010F08F5FE5CFF9016083DF91CF910895B2
:100260001092800084E080938100109285001092AB
:100270008400089580918400909185000895AC01D8
:1002800080918400909185009C01241B350B283EB1
:100290003340B0F708952091840030918500820F9B
:1002A000931F0C943F01CF93DF931F92CDB7DEB71E
:1002B0009E012F5F3F4F45E06CE173E00E94070114
:1002C00091E0980F909300019981915097BD18BCCF
:1002D00095B5977039F095B5209100012770987FFA
:1002E000922B95BD298130E0E82FF0E0E45EFC4FD1
:1002F000C901008002C0880F991F0A94E2F70F908D
:10030000DF91CF91089585B3897F85BB85B59091A5
:1003100000019770887F892B85BD089585B5887FFA
:1003200085BD089585B382FB882780F908950097DD
:1003300019F0019741F0089584B58F736295660FA7
:10034000660F607C05C084B563706295607F8F7CAA
:10035000682B64BD0895009741F0019759F484B566
:100360008E7F84BD84B5826002C084B58C7F84BDDD
:1003700081E0089580E0089514BC15BC16BC18BC3B
:1003800084B58E7F84BD84B5826084BD81E008958C
:10039000853098F4673088F421E030E001C0220F06
:1003A0006A95EAF7E82FF0E0E759FC4F922F909515
:1003B000808189234111822B80830895853080F4C8
:1003C000673070F421E030E001C0220F6A95EAF74F
:1003D000E82FF0E0E759FC4F8081282381E009F401
:1003E00080E0089560916803E62FF0E0E759FC4F44
:1003F00080810E944002809168038F5F853018F4ED
:10040000809368030895109268030895E9E6F3E085
:100410001082118212821382148208950E941E0299
:100420000C9406029C01FC01FF2784A1832B84A36A
:1004300095A1892F832B85A381E00895CF93DF9326
:10044000CBE2D3E0899199910E94120283E0C933F3
:10045000D807C1F783E090E40E94120280E090E8A0
:100460000E94120283E090E10E94120283E090E871
:100470000E94120283E090E2DF91CF910C9412026D
:10048000E0916E03F0E0EE0FFF1FEF5DFC4F208167
:100490003181F901FF2795A1932B95A3EBE2F3E0BE
:1004A00097E020813181D901BB2795962C919597B2
:1004B00080FF03C03095232301C0232B95962C93F6
:1004C0008695915032969111ECCFE62FF0E0EE0F29
:1004D000FF1FEF5DFC4F80819181FC01FF2785A10B
:1004E0009095892385A360936E030895623071050A
:1004F00019F170F46130710559F5FC01FF2724A151
:10050000392F3095922F932394A385A183231DC067
:100510006330710541F064307105D1F4FC01FF27AF
:1005200084A1892B0FC0FC01FF2784A1892B84A300
:1005300085A19095892309C0FC01FF2784A1292F5B
:100540002095822384A385A1892B85A381E008952A
:1005500080E00895E82FF0E0EE0FFF1FE159FC4F17
:100560008081882321F0918181E0892702C080E089
:1005700090E081700895E82FF0E0EE0FFF1FE15941
:10058000FC4F8081811102C0818102C080E090E037
:1005900081700895E82FF0E0EE0FFF1FE159FC4F46
:1005A00080810895E82FF0E0EE0FFF1FE159FC4F26
:1005B000908181E0892708957F928F929F92AF92D8
:1005C000BF92CF92DF92EF92FF920F931F93CF9340
:1005D000DF93CFE6D3E059E3C52E53E0D52E66E096
:1005E000762E88818983F601019111916F0158015E
:1005F000BB24F50124A1E12EFF2485A190E08E21EA
:100600009F2130E02E213F21232B31F0892B51F403
:1006100033E0832E912C0DC0892B41F488248394E0
:10062000912C07C094E0892E912C03C082E0882E83
:10063000912C64E070E0C8010E94760262E070E0F4
:10064000C8010E947602872D8A95F1F7F50183A1F2
:1006500090E0E822F92281E0EF2809F080E0888329
:10066000B401C8010E9476022296F3E0C937DF0781
:1006700009F0B7CFDF91CF911F910F91FF90EF90CD
:10068000DF90CF90BF90AF909F908F907F90089514
:100690000895009789F0FC012381621B67FD09C062
:1006A000062E000C770B248130E081E0621773077F
:1006B0000CF080E08170089580E00895CF93DF937F
:1006C000FC01892B79F18181481760F59281291706
:1006D00048F59381A62FA91BA7FD24C00A2E000C64
:1006E000BB0BC481D0E0AC17BD07E4F4622F0E94BD
:1006F000D606480F858190E0BD010E94DF06069670
:10070000242F269526952695E80FF91FE20FF11D57
:10071000808190E0477002C0959587954A95E2F7F1
:10072000817001C080E0DF91CF910895CF93DF9376
:10073000EC010E9430019E0140E050E062E17AE766
:1007400080E090E00E94180730937C0320937B03A5
:10075000DF91CF9108958091790390917A030E945F
:100760003F012091790330917A0380917B0390912E
:100770007C03820F931F90937A03809379030895EB
:10078000692F0C94DE0141E0611101C040E0692F46
:100790000C94C8010C94C3035F926F927F928F9266
:1007A0009F92AF92BF92CF92DF92EF92FF920F9300
:1007B0001F93CF93DF93562E872E942E5C01E62E47
:1007C000F72EC62F660FDD0BC81BD10987FDD39509
:1007D000072F770F110B091B110997FD1395D7FFF1
:1007E00003C077247A9402C07724739417FF03C060
:1007F00066246A9402C066246394D7FF03C0D1952F
:10080000C195D10917FF03C0119501951109C017B2
:10081000D107A4F06E01D594C794F92EA51411F157
:10082000692D8A2D9F2D0E94C303C01AD10AD7FEBD
:1008300003C0CC0EDD1EF60CA70CF0CF6801D594DA
:10084000C794E82EB81471F0692D8E2D9B2D0E944F
:10085000C303CC1ADD0AD7FE03C0C00ED11EE70CBD
:10086000B60CF0CF692DC701DF91CF911F910F9189
:10087000FF90EF90DF90CF90BF90AF909F908F90C0
:100880007F906F905F900C94C303FF920F931F9320
:10089000CF93DF93D82FF92E162FC72F042F792F40
:1008A0000E94CC03402F6D2F7C2F8D2F9F2D0E94F7
:1008B000CC03402F612F7C2F812F9F2D0E94CC03D2
:1008C000402F612F7C2F8D2F9C2F0E94CC03DF9116
:1008D000CF911F910F91FF9008950E940602E1E0D1
:1008E000F1E0118A14860895DF92EF92FF920F9340
:1008F0001F93CF93DF93D82E7B01162F0F2D80915E
:10090000030190910401D0E0019799F50F2D0D1B83
:10091000E0910901F0910A018181C0E0D817B8F493
:100920008091090190910A01FC012281C21768F4AB
:100930002C2F4D2F6D2D0E945E03682F8E2D8C0F56
:10094000902F0E94C303CF5FEBCFDF5FDFCFE0913B
:100950000901F0910A018281C81740F460E08E2DF0
:100960008C0F902F0E94C303CF5FF1CF015030C096
:10097000DF5F1E2D1D0FE0910901F0910A018181B9
:10098000C0E0D817A8F48091090190910A01FC01F8
:100990002281C21768F72C2F4D2F6D2D0E945E0308
:1009A000682F812F9F2D9C0F0E94C303CF5FEBCF39
:1009B000E0910901F0910A018281C81740F460E0DA
:1009C000812F9F2D9C0F0E94C303CF5FF1CF1F5F2C
:1009D000812F902FDF91CF911F910F91FF90EF907A
:1009E000DF9008950F931F93CF938C01C0E0F8011F
:1009F00081918F01882341F00E947404BC01CF5F74
:100A0000853014F477FFF3CF8C2FCF911F910F9186
:100A100008950F931F93CF93DF9310920D0140938E
:100A20000E01109211010091090110910A010115A6
:100A3000110509F449C09B01EC01F8018181609125
:100A400007017091080190E00E94DF06BC018091CF
:100A50000B0190910C010E94F006CB016AE070E05E
:100A60000E94DF069093100180930F0130930601DE
:100A70002093050140E250E0BE0182E191E00E9436
:100A8000590780910101909102010197E9F4FE015B
:100A900001900020E9F73197BF016C1B7D0BF80135
:100AA00081818F5F0E94D606815020910301309191
:100AB00004012130310511F095E001C097E098174D
:100AC00018F48EEF80931101DF91CF911F910F9158
:100AD000089520910301309104012130310511F076
:100AE00070E001C076E04FEF60E00E9409050895D4
:100AF00090E090930801809307010895909302017C
:100B00008093010108959093040180930301089557
:100B100090930A0180930901089580917D0390913B
:100B20007E03019690937E0380937D0320910F01B5
:100B3000309110018217930708F469C010927E0368
:100B400010927D03E0910D01F0E0EF5FFE4F81898F
:100B500081110AC080910E01823008F458C0815082
:100B600080930E0110920D0180910D0190E0FC0127
:100B7000EF5FFE4F2189222309F449C04091010112
:100B800050910201209111014115510521F0413090
:100B9000510599F024C0211122C060910501709186
:100BA00006018E5E9E4F0E94F20490E001979091A4
:100BB0000D01890F80930D0112C0609105017091A4
:100BC000060140910301509104014130510511F497
:100BD000720F01C0621B8E5E9E4F0E94F2048091D4
:100BE00011018F5F80931101082E000C990BE09189
:100BF0000901F0910A01218130E0281739073CF4FE
:100C00001092110180910D018F5F80930D010C9462
:100C1000F201CF93DF93C1E0D1E09B878A870E94E6
:100C20000E0284E190E09F838E83DF91CF910C943C
:100C30006D040E94690584E00E94AA02811107C028
:100C40000E94AB030E948D050E94DC02F4CF089540
:100C50000F931F93CF93DF93EC018B0180E00E94F1
:100C6000AA02882339F0CE010196B8010E94040738
:100C7000EC010FC082E00E94AA02882351F0CE014D
:100C80000197B8010E940407EC0197FF02C0C00F52
:100C9000D11FCE01DF91CF911F910F910895EF9257
:100CA000FF920F931F93CF93DF938C017B01C0E0E2
:100CB000D0E084E00E94AA02811115C00E94AB031B
:100CC0000E948D050E94DC02B701CE010E94280619
:100CD000EC01FC01EE0FFF1FE00FF11F80819181FD
:100CE0000E946905E6CFCE01DF91CF911F910F9150
:100CF000FF90EF900895CF93DF9300D000D000D005
:100D0000CDB7DEB70E94F7008AEF90E00E94090697
:100D100088E391E00E9488058EE10E94780581E0D9
:100D200090E00E947E050E9448038AEF90E00E94B6
:100D300096033A9A429886E0E2E3F1E0DE011196EA
:100D400001900D928A95E1F783E493E00E941906E1
:100D50000E94AB030E948D050E94DC0263E070E0FC
:100D6000CE0101960E944F06880F991FE1E0F0E046
:100D7000EC0FFD1FE80FF91F0190F081E02D80813D
:100D80000E946300429A81E593E00E9469050E94F7
:100D90005900811105C00E94AB030E948D05F7CF59
:100DA00042988CE593E00E946905D2CF002480FD33
:100DB000060E660F11F08695D1F7802D0895002458
:100DC000552704C0080E591F880F991F009729F056
:100DD00076956795B8F37105B9F7802D952F08952D
:100DE000AA1BBB1B51E107C0AA1FBB1FA617B70751
:100DF00010F0A61BB70B881F991F5A95A9F780956D
:100E00009095BC01CD01089597FB072E16F4009430
:100E100007D077FD09D00E94F00607FC05D03EF40C
:100E2000909581959F4F0895709561957F4F089596
:100E3000052E97FB1EF400940E942F0757FD07D044
:100E40000E94370707FC03D04EF40C942F075095EF
:100E50004095309521953F4F4F4F5F4F08959095A6
:100E60008095709561957F4F8F4F9F4F0895A1E2B8
:100E70001A2EAA1BBB1BFD010DC0AA1FBB1FEE1F14
:100E8000FF1FA217B307E407F50720F0A21BB30B5F
:100E9000E40BF50B661F771F881F991F1A9469F7DB
:100EA00060957095809590959B01AC01BD01CF0137
:100EB0000895FB01DC014150504048F001900D9233
:100EC0000020C9F701C01D9241505040E0F708953D
:040ED000F894FFCFC4
:100ED40001000000000000140000000000000000F9
:100EE40000000000000000000000000000000000FE
:100EF40000000000000000000000000000000000EE
:100F04000000620364036603010507205F05000017
:100F1400000000C6186380014A290000004A7DF5DC
:100F24009502C417471F01632222320626155193E6
:100F340005860800000088082108028220848800B1
:100F4400805457090080904F08000000608800001A
:100F5400800F00000000008C0100222202002EE617
:100F64003AA303C4104288032E4244C4072E420706
:100F7400A30388A9F411023F8407A3032E8617A3B1
:100F8400033F424408012E4617A3032E460FA30332
:100F9400C018600C00C0186088008888200802000F
:100FA4007CF0010082208888002E424400012E42F9
:100FB4005BAB0344C51F63042FC617E3032E8610DF
:100FC400A2032FC618E3033F8417C2073F841742C6
:100FD400002E861EA30731C61F63048E10428803A9
:100FE400104218A3033195515204218410C2077191
:100FF400D71A630471D61C63042EC618A3032FC624
:101004001742002EC65893052FC61763042E0607F1
:10101400A3039F1042080131C618A30331C6181553
:101024000131C65AAB02312AA26204312A420801B4
:101034001F2222C207278410C20120088220000E2A
:10104400218490034445000000000000C007822072
:101054000000000038E8A30721B419E30300B81026
:10106400A20310DA1CA30700B8F883034C8A238474
:1010740000C0C7E8A10321B419630404184288031B
:10108400083084920121A4324A0286104288030067
:10109400AC5A630400B419630400B818A30300BC79
:1010A400F8420000D8EC210400B419420000B8E072
:1010B400E003421C21240300C418B30500C418151E
:1010C4000100C45AAB02004445540400C4E8A1031F
:1010D400007C44C40788104108028410420801823D
:1010E4001044880000888A0000D000080003060825
:1010F4000A03400080031003800320004000200006
:1011040010000800040002000103800340032000D3
:101114008003105075736820746F20737461727447
:101124000073656E64696E672E2E2E0068656C6CA4
:081134006F005000530052004F
:00000001FF
